:020000040800F2
:1000000020090020ED010008A3400008B5330008D6
:10001000A1400008ED04000829520008000000007B
:100020000000000000000000000000000B44000879
:10003000AB05000800000000F54000083D44000842
:10004000070200080702000807020008070200086C
:10005000070200080702000807020008070200085C
:10006000070200080702000807020008070200084C
:1000700007020008F1040008FD0400080702000858
:10008000070200080000000007020008070200083D
:10009000070200080702000807020008070200081C
:1000A000070200080702000807020008070200080C
:1000B000B9440008C5440008D144000807020008FC
:1000C00007020008070200080702000807020008EC
:1000D000070200081D520008070200080702000876
:1000E00007020008070200080702000807020008CC
:1000F0000702000807020008E944000800000000A9
:1001000000000000070200080000000007020008CD
:100110000702000800000000DD4400080702000894
:10012000070200080702000807020008070200088B
:10013000070200080000000000000000070200089D
:10014000070200080702000800000000000000008D
:10015000000000000000000000000000000000009F
:10016000000000000000000000000000070200087E
:10017000070200080000000000000000000000006E
:10018000000000000702000800000000000000005E
:10019000000000000000000000000000000000005F
:1001A000000000000000000007020008070200082D
:1001B000070200080702000807020008000000000C
:1001C000000000000702000800000000000000001E
:1001D0000702000807020008DFF80CD000F07AF8E8
:1001E00000480047CD5200082009002006488047FB
:1001F00006480047FEE7FEE7FEE7FEE7FEE7FEE70C
:10020000FEE7FEE7FEE7FEE7A9440008D901000883
:100210002DE9F05F0546002092469B46884606463B
:10022000814640241BE0284641464746224600F0CE
:1002300041F853465A46C01A914110D31146184608
:10024000224600F028F82D1A67EB01084F46224697
:100250000120002100F01FF817EB00094E41201E7D
:10026000A4F10104DFDC484631462A464346BDE896
:10027000F09FD2B201E000F8012B491EFBD270477B
:100280000022F6E710B513460A4604461946FFF762
:10029000F0FF204610BD202A04DB203A00FA02F1CC
:1002A000002070479140C2F1200320FA03F3194364
:1002B00090407047202A04DB203A21FA02F0002106
:1002C000704721FA02F3D040C2F120029140084366
:1002D00019467047064C074D06E0E06840F0010300
:1002E00094E8070098471034AC42F6D3FFF778FF44
:1002F000346500085465000810B5846AE16D11F09A
:10030000500F06D0E16DC90625D5204600F028FC27
:1003100010BDE06D40F40070E065206801680907D9
:1003200016D503F0EDFA78B12068C0688004002883
:100330000ADBE06D20F48070E065E06DC00403D45A
:10034000E06D40F00100E065204600F007FC10BDC4
:10035000C0688007EBE7616D496BBDE81040084756
:1003600010B5806AC16D41F04001C165016E41F078
:100370000401016600F0F4FB10BD10B5806A00F0C6
:10038000EEFB10BD70B50446006881688268C1F359
:10039000400112F0010F28D039BB816801F00D0136
:1003A000012914D18168124A1140891C8160216899
:1003B0000320086001F0A4F8054612E001F0A0F85F
:1003C000401B02280DD920688068C00709D0E06D65
:1003D00040F01000E065206E40F001002066012032
:1003E00070BD20688068C007E8D1002070BD0000A3
:1003F000C0FFFF7FF8B504460020009020688168A8
:1004000011F0010F41D18168214A11422ED181683A
:10041000D5432940491C81601E48806800F0E07087
:1004200000020DD51C481D490068B0FBF1F0401CCE
:1004300000EB4000800000E0401E00900028FBD14F
:1004400001F05EF806461BE0816811F0010F03D150
:1004500081682940491C816001F052F8801B022804
:100460000ED920680068C043C00709D0E06D40F095
:100470001000E065206E40F0010020660120F8BD0C
:1004800020680168C943C907DED10020F8BD00001B
:100490003F000080000300500C000020400D0300CE
:1004A00010B57F210E4800F091F87F210D4800F033
:1004B0008DF801220C490A4800F0F6FC002408B926
:1004C0000948048008490222891C064800F0ECFC17
:1004D000002803D10448801C0480448010BD000023
:1004E000D40000206800002018000020FEE7000073
:1004F000014800F0C2BD00005C040020014800F08B
:10050000BCBD0000BC0400200D4902688A4201D233
:100510000C4901E00B492031D2B21423083AB2FB56
:10052000F3F2436C02F01F0223F0030319448164C9
:1005300004498031C1640121914001657047000088
:1005400008040240000802400179074A02EB8102D8
:100550004265054A4432491E826501F01F020121AD
:100560009140C16570470000FC08024030B5D0E9F9
:1005700013456560446D14B1D0E91645656090F887
:10058000444004F01F050124AC40056C6C60046815
:1005900063608368102B036803D099600068C260B1
:1005A00030BD9A600068C16030BD7047002240F6DF
:1005B000B83306E00021491C89B29942FBD3521C92
:1005C00092B28242F6D3704772B6FEE7F8B50026C3
:1005D0000446009690F858000D4601280BD00120E3
:1005E00084F858002046FFF7CDFE0100E06D04D0EE
:1005F00040F010002AE00220F8BD20F4885040F0BE
:100600000200E06520688268134B1A4005F08043C1
:100610001A4342F000428260104A20680EE0009BBC
:100620005B1C0093934209D3E06D20F0020040F080
:100630001000E06584F858600120F8BD8368DB0F86
:10064000EDD1E06D20F0020040F00100E06584F89B
:1006500058600846F8BD0000C0FFFF3F02DE0400FE
:100660002DE9F047044690F858009CB00E464FF034
:100670000009012815D0012084F85800002517959D
:10068000189520684FF0A04840450ED1284F00979C
:10069000384603F031F98246206803F02DF960B145
:1006A0000EE002201CB0BDE8F087E06D40F02000B5
:1006B000E06584F858500120F4E7BAF1000F09D042
:1006C000E06D40F02000E0654FF0010984F85850DB
:1006D0004846E7E71748326840F61F71002A8268EB
:1006E00022F4604216D094F8383042EA43327368FC
:1006F0001A438260D8F80820BB6802F0010203F0B8
:1007000001031A43E2D1B36832681A4383688B430A
:100710001A430BE08260D8F80820BB6802F001029F
:1007200003F001031A43D1D182688A438260CDE786
:1007300000010050000300502DE9F84F0027044647
:10074000009790F85800DFF8E0930D46B84601286E
:1007500011D0012684F85860206803F0C9F860B110
:10076000E06D40F02000E0655FF0010784F85880FC
:100770003846BDE8F88F0220FBE7D5E900210C23BD
:10078000206803EA91131844036B01F01F014FF036
:100790001F0C0CFA01FCC2F3846223EA0C038A40AA
:1007A00013430363206803F0A3F88246206803F034
:1007B0009BF85AEA00003CD1AA6829682068B2F187
:1007C000004F37D003F0A4F82068416921F00041C0
:1007D000416120686969C268C2F3C1025200914058
:1007E0002A69042A31D000EB82002B68026EDFF800
:1007F0003CC303F0F84302EA0C020B431A4342F0F5
:100800000041016620682A69A96900EB8200026E36
:1008100022F080720A430266297F22682869012932
:1008200010D0002102EB8000026E22F000720A4319
:1008300002667DE0002203F06BF82068416941F018
:100840000041C5E74FF00071ECE7002103F046F8E6
:10085000400320684FF0000172D003F03FF890FA97
:10086000A0F0B0FA80F1286842036ED090FAA0F0B0
:10087000B0FA80F0814204D100221146206803F0D2
:1008800056F80121206803F029F8400320684FF052
:1008900001015DD003F022F890FAA0F0B0FA80F1E7
:1008A0002868420359D090FAA0F0B0FA80F0814253
:1008B00004D100220121206803F039F802212068C8
:1008C00003F00CF8400320684FF0020148D003F019
:1008D00005F890FAA0F0B0FA80F12868420344D0FD
:1008E00090FAA0F0B0FA80F0814204D100220221F7
:1008F000206803F01CF80321206802F0EFFF40039A
:1009000020684FF0030133D002F0E8FF90FAA0F026
:10091000B0FA80F1286842032FD090FAA0F0B0FA24
:1009200080F0814204D100220321206802F0FFFF01
:100930002068816811F0010F22D0ACE000E004E0F3
:1009400002F0CCFFC0F384618DE7C0F3846091E7CF
:1009500002F0C4FFC0F38461A2E7C0F38460A6E79D
:1009600002F0BCFFC0F38461B7E7C0F38460BBE76B
:1009700002F0B4FFC0F38461CCE7C0F38460D0E739
:100980002A7B296850F8B03FC1F3120C23EA0C030C
:1009900002F0180C664A22FA0CF20A401343036074
:1009A000E968494577D1286841031CD090FAA0F145
:1009B000B1FA81F1491C01F01F0109294FEA4031C8
:1009C00032D8002912D000BF90FAA0F1B1FA81F11B
:1009D00001F1010101F01F0106FA01F609D100BF82
:1009E000C0F3846109E0C0F38461E3E7C0F384618C
:1009F000EEE790FAA0F1B1FA81F101F1010101F005
:100A00001F0146EA816102D1C0F3846003E090FADD
:100A1000A0F0B0FA80F000F1010000F01F0000EB40
:100A2000400041EA005132E000290ED090FAA0F1D6
:100A3000B1FA81F101F1010101F01F0106FA01F69D
:100A400006D100BFC0F3846106E0C0F38461F1E722
:100A500090FAA0F1B1FA81F101F1010101F01F0159
:100A600046EA816102D1C0F3846003E090FAA0F00D
:100A7000B0FA80F000F1010000F01F002D4A00EBF9
:100A8000400002EB005041EA000141F00071AA6809
:100A9000206802F03DFF28482A6802423FF466AE13
:100AA00026488168264B01F0E0719A4202D0254B1E
:100AB0009A421CD10B021AD42268B2F1A04F7FF4E3
:100AC00055AE826841F4000122F0E0720A43826070
:100AD0001D481E490068B0FBF1F0401C00EB4000CF
:100AE000800000E0401E00900028FBD13EE6184D3B
:100AF000184BAA4207D1CD0105D422689A42F5D0FD
:100B000041F0807109E0144DAA42EFD14A02EDD4C0
:100B100022689A42EAD041F48001826822F0E072B1
:100B20000A43826022E6000000007F4000F0FF03DD
:100B3000FFFF0700000020FE0000088000030050B7
:100B4000000021C31000C0900C000020400D0300E5
:100B5000000052C700010050000084CB704770476E
:100B600070470000F8B54FF0000504002E460095D0
:100B700002D0E06D10B107E00120F8BD204600F082
:100B8000EBF8266684F8586020688168C1F34071EC
:100B900019B18168684A1140816020688168C1F399
:100BA000007189B98168654A114041F080518160C6
:100BB000634864490068B0FBF1F04000801C00E02D
:100BC000401E00900028FBD120688168C1F30071AD
:100BD00041B9E16D41F01001E165216E41F0010183
:100BE0002166012502F084FEE16DC90600D430B112
:100BF000E06D40F01000E06501252846F8BDE06D8D
:100C000020F4807040F00200E0652068806810F0F9
:100C1000010F11D14FF0A04080684B4900F0010056
:100C2000896801F00101084306D14848616882687B
:100C300022F47C120A438260E168E06B627F084321
:100C4000A16841EA4231084394F8241040EA014087
:100C5000012904D1218D3E4A02EB41410843E16A5A
:100C600029B101F47871226B014342EA0100226844
:100C7000D168384B19400143D16020680169626B2B
:100C800021F0406111430161206802F02DFE70BB2C
:100C9000207F94F83810800340EA41022168C86838
:100CA00044F2020398431043C8602069002820687A
:100CB00001690AD041F480310161206850F8C01FF9
:100CC00022696FF30D01114307E021F480310161C6
:100CD000206850F8C01F6FF30D01016094F84000C8
:100CE00001280CD02068016921F0010101616069CF
:100CF00001282068016B21F00F0111D013E0D4E925
:100D000011010843D4E913121143084321680A6909
:100D100040F2FC739A43104340F001000861E6E79B
:100D2000226A521E11430163E06D20F0020040F080
:100D30000100E06561E70000C0FFFF5FC0FFFF7FCB
:100D40000C000020400D0300000100500003005083
:100D50000000FEFF0740F0FF2DE9F04F97B0064678
:100D6000142111A8FFF78CFA44216846FFF788FA8E
:100D70004FF0005231680025454F9013454C4FF01D
:100D800003094FF0800A4FF4807BB1F1A04F11D0DE
:100D9000414B994247D10F9280460090684600F03F
:100DA000ADFC08B1FFF710FC3868401C3860012822
:100DB0003CD043E00F920090684600F09FFC08B1E1
:100DC000FFF702FC3868401C3860012807D1E06C4E
:100DD00040F40050E064E06C00F400501690E06CC9
:100DE00040F00200E064E06C139500F00200169001
:100DF0004FF4A040CDE9110911A9284800F052FA9A
:100E0000284C274820600520C4E901054FF4806084
:100E1000C4E905B0C4E9035A2020C4E90705204607
:100E20002EE07465A66217B0BDE8F08FE06C40F468
:100E30000050E064E06C00F400501690E06C40F06C
:100E40000200E064E06CCDF8448000F00200CDE9DF
:100E50001295169011A9114800F024FA114C10486F
:100E60006034143020602420C4E901054FF4806010
:100E7000C4E905B0C4E9035A2020C4E907052046A7
:100E800000F058F90028CCD0FFF79EFBC9E700001E
:100E90003000002000100240000100500004004813
:100EA00008000240400100202DE9F041044634488A
:100EB00017468846806800F01F05206802F018FD7C
:100EC00000285AD194F85800012856D0012084F8FF
:100ED0005800002625B1052D02D0092D00D003E0D1
:100EE0002046FFF787FA18B184F85860BDE8F08112
:100EF000E06D40F60161884340F48070E06521496F
:100F00002068884202D14FF0A04100E001468142B2
:100F100000D01DB9E06D20F48010E065E06DC004E4
:100F200004D5206E20F00600206600E02666616D84
:100F30001548C862616D15480863616D14484863BF
:100F400021681C20086084F858602068416841F0DE
:100F5000100141602068C16841F00101C160216851
:100F60003B4642464031606D00F044F921688A6892
:100F7000084B1A40121D8A60B8E70220B6E700004D
:100F80000003005000010050F90200087B03000834
:100F900061030008C0FFFF7F10B590F825300021E5
:100FA0000122022B03D00421C163012122E0036846
:100FB0001C6824F00E041C60836C1C6824F480748C
:100FC0001C6003681C6824F001041C6090F8443025
:100FD000046C03F01F0302FA03F36360D0E91334D7
:100FE0005C60436D33B11C6824F480741C60D0E9EC
:100FF00016345C6080F82520002280F82420084602
:1010000010BD70B590F82520002401212346022A46
:1010100007D00422C26380F8251080F82430012410
:1010200029E00268156825F00E051560026815684C
:1010300025F001051560826C156825F48075156032
:1010400090F84420056C02F01F0201FA02F26A6077
:10105000D0E913255560426D32B1156825F48075CD
:101060001560D0E91625556080F8251080F82430E9
:10107000816B01B18847204670BDF0B4016C0C68EB
:1010800001680D6890F8442002F01F06042202FA5D
:1010900006F3234211D06B070FD50B689B0603D4D0
:1010A0000B6823F004030B6090F8441001F01F015B
:1010B0008A40016C4A60016B1DE0022303FA06F7C7
:1010C00027424FF0000C4FF0010218D0AF0716D5A1
:1010D0000C68A40605D40C6824F00A040C6080F89F
:1010E000252090F8441001F01F018B40016C4B60EB
:1010F00080F824C0C16A00291AD0F0BC0847082330
:10110000B340234214D02B0712D50B6823F00E03F3
:101110000B6090F84410036C01F01F0102FA01F11A
:101120005960C26380F8252080F824C0416BE2E753
:10113000F0BC704770B504000CD02B4A2168142015
:10114000914209D2294A0A44B2FBF0F0800060645F
:1011500027480AE0012070BD234A52420A44B2FBEC
:10116000F0F080006064204808382064022084F891
:1011700025000A6847F6F0708243D4E90203184359
:10118000D4E904352B431843A3691843E369184392
:10119000236A1843104308602046FFF7B5F9A0689A
:1011A0000025B0F5804F00D16560A16C2079086002
:1011B000D4E9130141606068401E032808D8204626
:1011C000FFF7C2F9606D0560D4E91601416002E0E5
:1011D0006565A565E565E563012084F8250084F86B
:1011E0002450002070BD000008040240F8FFFDBF3D
:1011F0000000024070B5044690F824000025012844
:101200000CD0012084F8240094F825600020012EE1
:1012100006D084F824000225284670BD022070BD47
:10122000022684F82560E0632068066826F001063F
:1012300006602046FFF79AF9206B002820680168B5
:1012400002D041F00E0106E021F0040101602068A7
:10125000016841F00A010160A06C0168C90303D56F
:10126000016841F480710160606D18B1016841F45A
:10127000807101602068016841F001010160CBE7E5
:1012800070B5044600F03CF90546601C02D00448E5
:101290004068044400F034F9401BA042FAD370BD0A
:1012A000000000202DE9F04FDFF8209200230126F6
:1012B0000324A9F1040B85B00F2709F1040AABF14F
:1012C000040EFAE006FA03F52A407CD091F804C037
:1012D0000CF0030CBCF1010F02D0BCF1020F26D1BF
:1012E000D0F808C0CDF800C04FEA430C04FA0CF85F
:1012F000CDF810C0DDF800C02CEA080CCDF800C015
:10130000D1F80C80DDF810C008FA0CF8DDF800C048
:1013100048EA0C08C0F80880D0F804C02CEA050C94
:101320000D79C5F300159D4045EA0C0545600D7922
:10133000ED43AD070ED0C5684FEA430804FA08FC38
:1013400025EA0C05D1F808C00CFA08FC4CEA050C9B
:10135000C0F80CC00D7905F00305022D16D1DD088B
:1013600000EB850CCDF808C0DCF820805D074FEA63
:10137000D56C07FA0CF528EA05080D6905FA0CF595
:10138000DDF808C045EA0805CCF8205005684FEAAA
:10139000430CCDF808C004FA0CFC25EA0C0591F8C2
:1013A00004C00CF00308DDF808C008FA0CF848EA9D
:1013B0000508C0F800804D6815F4403F7CD0444DCE
:1013C000D5F860C000E077E04CF0010CC5F860C0D3
:1013D0002D6E23F0030C05F0010500953D4D65448D
:1013E0000295AD684FEA837C4FEA1C7807FA08FC47
:1013F00025EA0C05B0F1904F06D0DFF8DCC060455F
:1014000005D14FF0010C20E04FF0000C1DE0DFF89B
:10141000CCC0604502D14FF0020C16E0DFF8C0C02E
:10142000604502D14FF0030C0FE0DFF8B8C0604513
:1014300002D14FF0040C08E0DFF8ACC0604502D1E7
:101440004FF0050C01E04FF0060C0CFA08FC4CEADA
:10145000050C029DC5F808C0D9F80050CC46D1F85B
:10146000048095435FEAC82800D51543CCF80050A6
:10147000DAF80050D446D1F8048095435FEA882812
:1014800000D51543CCF80050DBF80050DC46D1F80D
:10149000048095435FEA883800D51543CCF80050A6
:1014A000DEF80050F446D1F8048095435FEAC8386E
:1014B00000D51543CCF800505B1C0A6832FA03F5DE
:1014C0007FF400AF05B0BDE8F08F000008040140D4
:1014D00000100240000001400004004800080048DD
:1014E000000C004800100048001400480069084043
:1014F00000D0012070470AB1816170478162704756
:1015000001488068704700000000002002488168A0
:1015100042681144816070470000002010B500242B
:10152000032000F073F80F2000F008F808B1012440
:1015300001E000F025F8204610BD000070B50E4E09
:1015400005460024706898B14FF47A71B1FBF0F051
:101550000A490968B1FBF0F000F060FD40B9102DB8
:1015600006D200222946501E00F030F8356000E017
:101570000124204670BD0000000000200C00002067
:101580000A4882B0016E41F001010166016E01F06E
:1015900001010091816D41F080518165806D00F005
:1015A0008050009002B000F0A1B80000001002408E
:1015B000002809DB00F01F02012191404009800052
:1015C00000F1E020C0F8001170470000F0B40E4BAD
:1015D0001B680C46C3F30223C3F10705042D00D991
:1015E0000425191D072901D2002300E0DB1E012676
:1015F00006FA05F1491E214099409E40761E16408C
:101600003143F0BC03F043BE0CED00E0064900F0AE
:10161000070208684FF6FF03184040EA0220034A19
:1016200010430860704700000CED00E00000FA0570
:101630002B492C4B0A6832214A432B4940B1B0F563
:10164000007F086829D020F4C06040F480602CE05E
:101650000868C0F34120022804D051F8800F20F41C
:10166000807022E0D1F8800020F48070C1F8800002
:10167000086820F4C06040F400700860B2FBF3F02A
:10168000401C00E0401E4A69520501D50028F9D1EE
:10169000486940050AD503207047C0F3412002285D
:1016A00006D051F8800F40F4807008600020704729
:1016B000D1F8800040F48070C1F88000086820F400
:1016C000C06040F400700860B2FBF3F0401C00E022
:1016D000401E4A695205DBD50028F9D1D8E7000041
:1016E0000C00002040420F0000700040024881685A
:1016F00041F4804181607047007000402DE9F8435B
:101700000446006800269D4D00035ED5A86D0027A5
:10171000C00008D4A86D40F08050A865A86D0127CE
:1017200000F080500090DFF85892D9F8001041F492
:101730008071C9F80010FFF7E3FE804606E000BFA5
:10174000FFF7DEFEA0EB080002282BD8D9F8000036
:10175000C005F5D5D5F8900010F4407014D0216C78
:10176000814211D0D5F89000D5F8901020F4407047
:1017700041F48031C5F89010D5F8901021F48031F3
:10178000C5F89010C5F89000C00711D0FFF7B8FE5B
:10179000804641F2883907E0FFF7B2FEA0EB08016E
:1017A000494501D903260BE0D5F890008007F3D511
:1017B000D5F89000216C20F440700843C5F89000E3
:1017C0001FB1A86D20F08050A8652078C00707D011
:1017D000D5F88800616820F003000843C5F8880048
:1017E0002078800707D5D5F88800A16820F00C0084
:1017F0000843C5F888002078400707D5D5F8880049
:10180000E16820F030000843C5F888002078000720
:1018100007D5D5F88800216920F0C0000843C5F835
:1018200088002078800607D5D5F88800616920F403
:1018300040600843C5F888002078400607D5D5F8F1
:101840008800A16920F440500843C5F8880020783A
:10185000000607D5D5F88800E16920F44040084328
:10186000C5F888002088C00507D5D5F88800216A0A
:1018700020F440300843C5F888002088800507D54B
:10188000D5F88800616A20F440200843C5F8880034
:10189000208840050FD5D5F88800A16A20F44010B3
:1018A0000843C5F88800A06AB0F5801F03D1E86836
:1018B00040F48010E860208800050FD5D5F8880036
:1018C000E16A20F440000843C5F88800E06AB0F5FA
:1018D000800F03D1E86840F48010E8602088C004DD
:1018E0000FD5D5F88800216B20F040700843C5F86B
:1018F0008800206BB0F1807F03D1E86840F480104D
:10190000E86020884FF0006180040ED5D5F888008B
:10191000626B20F040601043C5F88800606B88421D
:1019200003D1E86840F48010E860208840040ED5B8
:10193000D5F88800A26B20F040601043C5F88800FD
:10194000A06B884203D1E86840F48010E8602088EA
:1019500000040FD5D5F88800E16B20F04050084313
:10196000C5F88800E06BB0F1805F03D1E86840F40F
:101970008030E8603046BDE8F88300000010024087
:10198000007000402DE9F0470E4605004FF00007BB
:1019900025D0DFF8AC81D8F8000000F00F00B0428D
:1019A0000CD2D8F8001021F00F013143C8F8001014
:1019B000D8F8000000F00F00B04210D12968614C47
:1019C000C80741F2883A5AD06868DFF87C9103284A
:1019D00008D0022820682DD0400500282CDB0120EB
:1019E000BDE8F08720688001F9D5E06800F00302C7
:1019F000E068C0F30310401C032A19D0534A00BF0B
:101A0000B2FBF0F0E268C2F306225043E268C2F390
:101A10004162521C5200B0FBF2F0484517D9A06851
:101A200010F0F00F0CD0880711D5A86840B10EE077
:101A3000474AE5E78003D0E700F0B6F8484506D905
:101A4000A06820F0F00040F08000A0608027A0682F
:101A5000696820F003000843A060FFF751FD81464C
:101A600006E000BFFFF74CFDA0EB090151453AD855
:101A7000A068696800F00C00B0EB810FF2D1286813
:101A8000810714D5400703D5A06840F4E060A0604A
:101A90002878000705D5A06820F4605040F4E06085
:101AA000A060A068A96820F0F000084304E0802F3F
:101AB00003D1A06820F0F000A060D8F800104046E4
:101AC00001F00F01B14216D9016821F00F01314335
:101AD0000160FFF715FD074607E000BFFFF710FDA7
:101AE000C11B514501D903207AE7D8F8000000F066
:101AF0000F00B042F2D12878400705D5A068E96808
:101B000020F4E0600843A0602878000706D5A068AC
:101B1000296920F4605040EAC100A06000F044F858
:101B2000A1680C4AC1F30311515C01F01F01C840C8
:101B30000949086009480068BDE8F047FFF7FEBCA6
:101B4000002002400010024000B4C4040024F4004D
:101B500000366E014A5300080C00002000000020EF
:101B60000548064900688968054AC1F30221515CAD
:101B700001F01F01C84070470C0000200010024017
:101B80005A5300080548064900688968054AC1F3A8
:101B9000C221515C01F01F01C84070470C000020B9
:101BA000001002405A530008184910B58868C0F365
:101BB00081021748012A0BD08A68164BC2F38102B2
:101BC000022A06D08A68C2F38102032A03D00020C9
:101BD00010BD184610BDCA6802F00304CA68C2F3FB
:101BE0000312521C032C02D0B0FBF2F001E0B3FB55
:101BF000F2F0CA68C968C2F306225043C1F34161DA
:101C0000491C4900B0FBF1F010BD0000001002407B
:101C10000024F40000366E012DE9F84304007AD068
:101C20002078F84DC00747D0A868E96800F00C009C
:101C300001F003010C2802D0082817D001E0032985
:101C400014D06068B0F5803F17D0B0F5A02F286899
:101C500017D020F480302860286820F48020286085
:101C60006068E0B1FFF74CFC064614E0286880038A
:101C700022D560680028D2D01EE0286840F4803069
:101C8000EDE740F480202860F7E700BFFFF738FC5D
:101C9000801B642870D828688003F7D50CE0FFF714
:101CA0002FFC064605E000BFFFF72AFC801B6428D6
:101CB000F0D828688003F7D4207880074CD5A8682E
:101CC000E96800F00C0001F003010C2802D00428A0
:101CD0000DD001E002290AD0E068002828682BD046
:101CE00040F480702860FFF70BFC064619E0286876
:101CF000400502D5E068002891D06868217C20F07A
:101D0000FE4040EA01606860BF480068FFF716FCCB
:101D1000002800D120E072E1FFF7F2FB801B0228CF
:101D2000B8D828684005F7D56868217C20F0FE40C7
:101D300040EA016068600FE020F480702860FFF7DF
:101D4000DFFB064605E000BFFFF7DAFB801B022839
:101D5000A0D828684005F7D42078000729D5606905
:101D60000028D5F8940013D040F00100C5F8940085
:101D7000FFF7C6FB064606E090E000BFFFF7C0FB9A
:101D8000801B022886D8D5F894008007F6D510E08D
:101D900020F00100C5F89400FFF7B2FB064604E00E
:101DA000FFF7AEFB801B022878D8D5F89400800797
:101DB000F6D42078400761D5A86D0026C00008D46D
:101DC000A86D40F08050A865A86D012600F08050F5
:101DD00000908E480168C90511D40168804641F41D
:101DE00080710160FFF78CFB074604E0FFF788FB7A
:101DF000C01B022852D8D8F80000C005F6D5A0684C
:101E0000012815D00528D5F8900016D020F0010043
:101E1000C5F89000D5F8900020F00400C5F89000B7
:101E2000A06841F28838B8B1FFF76AFB07460EE0B8
:101E3000D5F8900040F00100F0E740F00400C5F84C
:101E40009000F5E7FFF75CFBC11B414526D8D5F8AC
:101E500090008007F6D50CE0FFF752FB074604E040
:101E6000FFF74EFBC11B414518D8D5F890008007FD
:101E7000F6D41EB1A86D20F08050A86520788006A9
:101E800029D5A0690028D5F8980013D040F00100AA
:101E9000C5F89800FFF734FB064606E075E000BF82
:101EA000FFF72EFB801B02286FD8D5F8980080071B
:101EB000F6D510E020F00100C5F89800FFF720FBF0
:101EC000064604E0FFF71CFB801B02285DD8D5F80E
:101ED00098008007F6D4E069F0B3A968C1F38101E6
:101EE00003295DD00228286820F08070286003D084
:101EF000FFF706FB04464BE0FFF702FB064604E053
:101F0000FFF7FEFA801B02283FD828688001F7D42B
:101F1000F4E908016FF00F0202EB01110843218A76
:101F20005204490802EB4151A26841EA02210843E8
:101F3000217D4FF07E42490802EB41610843217B3D
:101F400040EAC160E968324A11400843E860286805
:101F500040F08070286000E05EE0E86840F080704B
:101F6000E860FFF7CDFA044605E000BFFFF7C8FAC6
:101F7000001B022809D828688001F7D54CE000BF73
:101F8000FFF7BEFA001B022802D90320BDE8F88340
:101F900028688001F4D4E8681E490840E8603BE006
:101FA0000128F3D0E868226A00F00301914226D1AB
:101FB000616A00F0F0020901103991421FD1A26A52
:101FC00000F4FE41B1EB022F19D194F82C2000F05F
:101FD0007841B1EBC26F12D1218E00F4C0024908E2
:101FE0004905A1F50011914209D194F8341000F08F
:101FF000C06049084906A1F1007181420CD001205E
:10200000C4E7000000100240000000200070004003
:102010000C809F01FCFFEEFE0020B7E710B5401ECC
:10202000B0F1807F01D3012010BD4FF0E02460614A
:102030000F21601703F02BF90020A0610720206119
:10204000002010BD704770477047000030B590F811
:102050003C20012A42D0012280F83C20CA688B68CB
:1020600022F440721A434B6822F480621A430B68D0
:1020700022F400621A430B6922F480521A434B691E
:1020800022F400521A430B6B22F480421A430B8B4A
:1020900022F4702242EA0342CB6922F080521A43B2
:1020A0000F4D03680024AB4202D00E4DAB4210D15D
:1020B0000D8D22F4700242EA05520D6A22F0807200
:1020C0002A434D6A22F000722A43C96A22F0005264
:1020D0000A435A6480F83C40002030BD022030BDE5
:1020E000002C0140003401407047704770470000E9
:1020F000F0B590F83C20012A3AD0012580F83C50F8
:10210000022280F83D2003685A689C68194E1A4FD5
:10211000B34201D0BB4204D122F4700C4A6842EAB7
:102120000C02DFF858C002EA0C02D1F800C04CEAF9
:10213000020CC3F804C00268B2420DD0B2F1804F65
:102140000AD00F4B9A4207D00E4B9A4204D0BA42A3
:1021500002D00D4B9A4204D1896824F080031943C0
:10216000916080F83D50002180F83C100846F0BD99
:102170000220F0BD002C0140003401408FFFFFFD24
:10218000000400400008004000400140704710B5C6
:10219000040003D094F83D0010B107E0012010BD09
:1021A000002084F83C00204600F022F8022084F849
:1021B0003D00211D206802F09DF9012084F84800AF
:1021C00084F83E0084F83F0084F8400084F8410021
:1021D00084F8420084F8430084F8440084F8450001
:1021E00084F8460084F8470084F83D00002010BDC4
:1021F00070B586B0044614216846FEF741F824689D
:1022000000225D4902234FF09045B4F1804F27D062
:102210005A4E5B48B44246D18C6D44F002048C6542
:102220008C6D04F002040594CC6C44F00204CC6480
:10223000C96C01F00201059110210091CDE9013234
:102240006946CDE90323FFF72DF8002211461D2032
:10225000FFF7BCF95FF01D00FFF7AAF906B070BDEB
:10226000886D40F001008865886D00F001000590E0
:10227000C86C40F00100C864C86C694600F00100F9
:1022800005904FF400400090CDE901320120CDE9E6
:1022900003202846FFF706F8002211461C20FFF70E
:1022A00095F91C20D8E7374EB44221D1886D40F013
:1022B00004008865886D00F004000590C86C40F04B
:1022C0000100C864C86C694600F001000590E01484
:1022D0000090CDE901320A20CDE903202846FEF71F
:1022E000E1FF002211461E20FFF770F91E20B3E720
:1022F000254DAC420ED1886D40F010008865886D88
:10230000002200F01000059011463620FFF75EF91C
:102310003620A1E71D4DAC4220D10C6E44F4005490
:102320000C660C6E04F400540594CC6C44F002046A
:10233000CC64C96C01F00201059140210091CDE906
:1023400001320521CDE903216946FEF7ABFF0022EA
:1023500011462E20FFF73AF92E207DE70C488442E3
:102360007FF47CAF086E40F480300866086E00F49D
:102370008030059072E70000001002400004004029
:1023800000040048000800400010004000340140F4
:102390000040014090F83D10012901D00120704714
:1023A000022180F83D100168CA6842F00102CA604B
:1023B0000068104988420ED0B0F1804F0BD00E4912
:1023C000884208D00D49884205D00D49884202D084
:1023D0000C49884207D181680B4A1140062906D072
:1023E000B1F5803F03D0016841F001010160002098
:1023F00070470000002C014000040040000800402D
:1024000000340140004001400700010070B504465F
:1024100090F83C000025012814D0012684F83C6087
:10242000022084F83D0022689068364B184020F462
:102430007F409060086870282ED010DC10F00F0FDD
:1024400003D021E04FF0020070BD4FEA2012072AAE
:102450001AD2DFE802F0525252524A3840002A4B58
:10246000C21A984249D009DCB0F5805F0DD0B0F5B2
:10247000005F1CD0B0F1101F06D13EE0102A3CD006
:10248000202A3AD0502A38D0012584F83D60002017
:1024900084F83C00284670BDCB68D1E90121206852
:1024A00002F093F82068816841F0770109E0CB6879
:1024B000D1E90121206802F088F82068816841F4A0
:1024C00080418160E1E7CA684968206802F090FABB
:1024D0005021206806E0CA684968206802F0D0FAF6
:1024E0006021206802F07CF8CFE7CA68496820685C
:1024F00002F07EFA40212068F4E722680146104687
:10250000F0E7000088FFCEFF2000100020490A7885
:10251000002A3CD101220A701E4B1F4A98420FD15B
:102520001B68586B9B6B401C80B2B2FBF0F25B1CCB
:102530008A809BB264225343B3FBF0F0488124E0CD
:10254000164B98420FD11B68586B9B6B401C80B296
:10255000B2FBF0F25B1CCA809BB264225343B3FB14
:10256000F0F0888111E00E4B98420ED11B68586B39
:102570009B6B401C80B2B2FBF0F25B1C4A809BB2AA
:1025800064225343B3FBF0F00881002008707047C9
:102590001E0000204C02002040420F0000020020DC
:1025A000980200202DE9F041054690F83C000026F5
:1025B0000C46012810D0012085F83C0072B1042A95
:1025C0001CD0082A2CD00C2A50D00126002085F8D7
:1025D0003C003046BDE8F0810220FBE7D4E9001260
:1025E000E368286802F016FA2868816921F00C0176
:1025F000816128688169A26811430FE0D4E9001263
:10260000E368286802F04EFA2868816921F4406185
:10261000816128688169A26841EA02218161D5E768
:102620002868D4E9002C277B036A016A21F48071B1
:102630000162C16923F4206321F0030141EA0C0126
:1026400021F0F00C39074FF420674CEA116107EADA
:1026500002221A43C16102622868C16921F00C019B
:10266000C1612868C169A26811432BE02868D4E9D8
:102670000021E768036AD0F820C02CF4805CC0F821
:1026800020C0D0F81CC023F420432CF4407C4CEA3A
:10269000012121F4704C4FF6FF7101EA07314FF42C
:1026A000204741EA0C0107EA02321A43C161026283
:1026B0002868C16921F44061C1612868C169A268C4
:1026C00041EA0221C16181E710B5040003D094F80A
:1026D0003D0010B107E0012010BD002084F83C004F
:1026E000204600F022F8022084F83D00211D2068D9
:1026F00001F000FF012084F8480084F83E0084F8CF
:102700003F0084F8400084F8410084F8420084F8D7
:10271000430084F8440084F8450084F8460084F8B7
:10272000470084F83D00002010BD704730B50446D6
:10273000002571B1042911D0082914D00C2917D013
:10274000102918D094F8430094F84720012817D195
:1027500014E094F83E0094F84420F7E794F83F0022
:1027600094F84520F2E794F8400094F84620EDE70D
:1027700094F84100E8E794F84200E5E7012A01D027
:10278000012030BD022079B1042916D008291DD0BE
:102790000C2949D010294AD084F8430084F8470016
:1027A0000C2947D001253DE084F83E0084F8440020
:1027B0002068C26842F0020210E084F83F0084F80A
:1027C00045002068C26842F0040207E084F8400037
:1027D00084F846002068C26842F00802C260012204
:1027E000206801F0E5FE1649206888420ED0B0F15D
:1027F000804F0BD01349884208D01349884205D036
:102800001249884202D01249884207D18168114A90
:102810001140062906D0B1F5803F03D0016841F090
:1028200001010160284630BD84F84100B6E784F814
:102830004200B3E72068C26842F01002CEE7000011
:10284000002C01400004004000080040003401401A
:1028500000400140070001002DE9F04104460068F6
:10286000C66805694FF00007A90713D5B10711D550
:10287000F91E0161012020772068806980072046C9
:1028800002D0FFF743FE04E000F0E0F8204600F03D
:10289000A2F92777680716D5700714D521686FF05D
:1028A00004000861022020772068806910F4407FCE
:1028B000204602D0FFF72AFE04E000F0C7F82046C9
:1028C00000F089F92777280715D5300713D5216837
:1028D0006FF008000861042020772068C069800735
:1028E000204602D0FFF712FE04E000F0AFF82046C9
:1028F00000F071F92777E80616D5F00614D521689F
:102900006FF010000861082020772068C06910F47B
:10291000407F204602D0FFF7F9FD04E000F096F872
:10292000204600F058F92777E80708D0F00706D0CE
:1029300021686FF001000861204600F0CBF92806FD
:1029400001D4A80408D5300606D521686FF40250DA
:1029500008612046FFF777FBE80508D5300606D565
:1029600021686FF4807008612046FFF76BFB6806F2
:1029700008D5700606D521686FF040000861204632
:1029800000F0DBF9A80608D5B00606D521686FF07F
:10299000200008612046FFF757FBE80208D5F00247
:1029A00006D521686FF4801008612046FFF79DFB73
:1029B000A80208D5B00206D521686FF4001008619E
:1029C0002046FFF791FB680208D5700206D5216802
:1029D0006FF4800008612046FFF788FB28020AD5C3
:1029E000300208D521686FF4000008612046BDE878
:1029F000F041FFF7CBBBBDE8F081000010B586B019
:102A0000044614216846FDF73BFC0E4920688842C5
:102A100015D10D48C16C41F00101C164C06C69461B
:102A200000F0010005900420009002200190002099
:102A30000290039009200490C006FEF733FC06B014
:102A400010BD00000040014000100240704770B50A
:102A5000044690F83C0000260D4601280BD00120CA
:102A600084F83C000C2A4AD007DC82B1042A20D02A
:102A7000082A06D131E0022070BD102A53D0142A52
:102A800063D00126002084F83C00304670BD2068E9
:102A900001F0B0FD2068816941F008018161206882
:102AA000816921F004018161206881692A691143EB
:102AB00011E0206801F0ECFD2068816941F40061BB
:102AC00081612068816921F4806181612068816968
:102AD0002A6941EA02218161D4E7206801F020FEE1
:102AE0002068C16941F00801C1612068C16921F015
:102AF0000401C1612068C1692A69114311E020689D
:102B000001F056FE2068C16941F40061C16120688E
:102B1000C16921F48061C1612068C1692A6941EA03
:102B20000221C161AEE7206801F08AFE2068016DD4
:102B300041F0080101652068016D21F00401016583
:102B40002068016D2A69114311E0206801F0B0FE90
:102B50002068016D41F4006101652068016D21F478
:102B6000806101652068016D2A6941EA02210165E1
:102B700088E710B5040003D094F83D0010B107E0D9
:102B8000012010BD002084F83C00204600F022F80F
:102B9000022084F83D00211D206801F0ABFC0120DB
:102BA00084F8480084F83E0084F83F0084F8400030
:102BB00084F8410084F8420084F8430084F844001B
:102BC00084F8450084F8460084F8470084F83D0006
:102BD000002010BD7047704730B50446022269B12D
:102BE000042912D0082917D00C291CD0102921D073
:102BF00094F84300012824D0012030BD94F83E0011
:102C00000128F9D184F83E201DE094F83F00012806
:102C1000F2D184F83F2016E094F840000128EBD16F
:102C200084F840200FE094F841000128E4D184F8B2
:102C3000412008E094F842000128DDD184F84220C8
:102C400001E084F843200122206801F0B1FC194B17
:102C500020681949194A984209D0884207D0904201
:102C600005D0174DA84202D0164DA84203D1456C9D
:102C700045F400454564206898420CD0B0F1804F7F
:102C800009D0114B984206D0104B984203D088428D
:102C900001D0904207D181680D4A1140062906D023
:102CA000B1F5803F03D0016841F0010101600020CF
:102CB00030BD0000002C01400034014000400140C4
:102CC000004401400048014000040040000800406A
:102CD000070001000249884201D100F08BBB704718
:102CE000E402002070B5044690F83C00012812D0A0
:102CF000012584F83C50022084F83D00204601F074
:102D00000FFE01004FF0000007D084F83D5084F81A
:102D10003C00012070BD022070BD2168CA6822F00D
:102D20004002CA602168CA6822F48042CA6084F8FE
:102D30003D5084F83C00002070BD704790F884102E
:102D4000012918D0012180F884102421C0F88810AE
:102D500001680A680B6823F001030B6022F0005140
:102D600000224266036819602021C0F8881080F8AC
:102D70008420104670470220704710B50446D0F8F2
:102D80008C00202801D0022010BD61B15AB1012071
:102D9000E06600202067204602F0A2F90028F3D167
:102DA000E16E012901D0012010BD226810211162BD
:102DB000226852E8001F41F0100142E80013002B86
:102DC000F6D110BD0B4A10B5904211D10A480278D5
:102DD000002A0DD1417001210170142207490548D4
:102DE000FFF7CBFF06480068016821F0040101608D
:102DF00010BD0000C80300202C000020540000205B
:102E00005C040020704770B5044690F884000128E7
:102E10001DD0012084F884002420C4F88800206894
:102E20000568026822F0010202602068826822F0D0
:102E300060620A438260204601F050FE206805600F
:102E40002020C4F88800002084F8840070BD02208F
:102E500070BD70B5044690F8840001281DD0012093
:102E600084F884002420C4F888002068056802687B
:102E700022F0010202602068826822F060420A4368
:102E80008260204601F02AFE206805602020C4F8F8
:102E90008800002084F8840070BD022070BD704757
:102EA000704770472DE9F04103680446D8691968F6
:102EB0009A6840F60F0528424FF000054FF00206D1
:102EC0000AD187067ED501F0200702F0805C57EA20
:102ED0000C0777D0616F42E1B64FDFF8DCC21740D4
:102EE00001EA0C0C57EA0C0C6CD05FEAC07C0CD0E9
:102EF0005FEAC15C09D54FF0010CC3F820C0D4F8DB
:102F0000903043F00103C4F89030830709D5D3070C
:102F100007D023681E62D4F8903043F00403C4F84D
:102F2000903043070AD5D30708D0266804233362BC
:102F3000D4F8903043F00203C4F8903003070CD566
:102F400001F020033B4308D0266808233362D4F8FD
:102F5000903043F00803C4F8903003050BD54B01C3
:102F600009D526684FF400633362D4F8903043F0FB
:102F70002003C4F89030D4F89030002B3DD0800668
:102F800009D501F0200002F08051084303D0616FA1
:102F900009B120468847D4F890002168896849061D
:102FA00002D410F0280F2AD0204601F01DFF20681F
:102FB000806840061ED52068083050E8001F21F0C8
:102FC000400100E021E040E80012002AF3D1D4F8EB
:102FD000800078B179498163D4F88000FEF711F858
:102FE00000280AD0D4F88000816B00E02046BDE8BC
:102FF000F04108472046FFF754FFBDE8F081204626
:10300000FFF74FFFC4F89050F7E7D4F86CC02027C3
:10301000BCF1010F7ED15FEAC06C7BD55FEAC16C69
:1030200078D51020186220688068400651D5D4F801
:1030300080100A6850680004000C3ED0B4F85C3080
:1030400083423AD9A4F85E000868006880062CD450
:10305000216851E8000F20F4807041E80002002A46
:10306000F6D12068083050E8001F21F0010140E847
:103070000012002AF5D12068083050E8001F21F026
:10308000400140E80012002AF5D1C4F88C70E566D2
:10309000216851E8000F20F0100041E80002002AEA
:1030A000F6D1D4F88000FDF777FF2667B4F85C000E
:1030B000B4F85E10401A81B207E0B4F85C108142A7
:1030C0009BD11068800698D526672046FFF77AFEC8
:1030D00093E7B4F85C00B4F85E10401A81B2B4F81B
:1030E0005E00002889D0002987D0226852E8000FAE
:1030F00020F4907042E80003002BF6D12D4BDB4307
:103100002068083050E8002F1A4040E8002CBCF13D
:10311000000F00E00EE0F3D1C4F88C70E56665673F
:10312000206850E8002F22F0100240E80023002B16
:10313000F6D1C9E7C60209D5560207D54FF480106B
:1031400018622046BDE8F041FFF7AABE03060AD583
:1031500001F0800302F40002134304D0A16F0029A0
:103160007FF444AF49E7420611D54A060FD5204601
:10317000016851E8002F22F0400241E80023002BB3
:10318000F6D1C0F88870856700F012F935E70202C1
:1031900006D54A0004D52046BDE8F041FFF77FBEC2
:1031A000C00195D5002993DA2046BDE8F041FFF72C
:1031B00029BE00000100001020010004954C000809
:1031C00010B5040003D0D4F8880010B107E0012046
:1031D00010BD002084F88400204600F027F8242049
:1031E000C4F888002068016821F001010160A06A2C
:1031F00010B1204601F094FC204601F037FE012872
:10320000E6D02068416821F49041416020688168DF
:1032100021F02A0181602068016841F0010101600C
:103220002046BDE8104001F0DFBC0000F0B597B0CB
:103230000646142111A8FDF723F844216846FDF73E
:103240001FF83249306888425ED101200090019019
:103250006846FEF753FA08B1FDF7B6F92C48016E3F
:1032600041F480410166016E01F480411691C16C08
:1032700041F00101C164C06C002400F0010016900F
:103280004FF4C06011900220CDE912040720CDE96F
:10329000144011A94FF09040FEF704F81E4D1D4850
:1032A000802728601820C5E90104C5E903476C613F
:1032B000AC61EC6128462C62FDF73CFF08B1FDF7DC
:1032C00083F9C6F88050AE62134D12486035143051
:1032D00028601920686005F10801102081E891003C
:1032E0006C61AC61EC6128462C62FDF723FF08B1EC
:1032F000FDF76AF9F567002211462520AE62FEF758
:1033000065F92520FEF754F917B0F0BD00380140EB
:1033100000100240300002405C04002070477047FB
:1033200070B50446D0F88800202801D0022070BD76
:1033300039B332B32165A4F85420A4F856200021F3
:10334000C4F890102120C4F88800E06FD8B1154B64
:10335000C362E36F14481863E36F14485863E06F67
:10336000134681632068E56F00F128022846216D2D
:10337000FDF740FF38B11020C4F890002020C4F8B9
:103380008800012070BD2168402008622068083054
:1033900050E8001F41F0800140E80012002AF5D1FA
:1033A000002070BD9B4D0008DD4D0008A54C0008B5
:1033B00070477047FEE7000000B585B014216846ED
:1033C000FCF75EFFC02000900120019002900220D7
:1033D000039069460248FDF765FF05B000BD000097
:1033E00000040048FFF7E8BF0148FEF7D3BF000024
:1033F000E402002070B5314D01212846FEF776F831
:103400002F4C022120712846FEF770F8207304210A
:103410002846FEF76BF8207501214FF09040FEF72B
:1034200065F800210326207701230A4604EBC1003A
:10343000C57835B1012D15D0022D29D0032D34D0FA
:1034400036E04271C579012D09D185796D1CEDB247
:103450008571142D03D304F831308271C27105795E
:1034600015BBC370C579012D057901D05DB10DE0A3
:1034700065B985791E2D06D204EBC101CA7182712E
:103480004370C67070BD0225C57005E0C2700FE0C4
:1034900005790DB1C371F9E745796D1CEDB2457140
:1034A000642D05D38370C67002E00579012DEDD03F
:1034B000491CC9B20429B9D370BD000000040048FA
:1034C0003400002000B585B014216846FCF7D8FE12
:1034D0004FF6FF70009000200321CDE9020101901A
:1034E00069460248FDF7DEFE05B000BD0008004851
:1034F00000B585B014216846FCF7C2FE4FF6FF7098
:103500000090012001900320039000200290694662
:103510000248FDF7C7FE05B000BD000000080048E6
:1035200070B5002406462146204600F003F900F05D
:1035300041F94FF49635304600F010F9641CAC4266
:10354000F9D370BD30B587B014216846FCF798FEFA
:103550001E48C16C41F00401C164C16C01F004015A
:103560000591C16C41F00101C164C16C01F0010120
:103570000591C16C41F00201C164C06C012500F0ED
:10358000020005904FF44870CDE900050024039433
:10359000694602940E48FDF785FE280203940090C8
:1035A000CDE901544FF0904469462046FDF77AFE7C
:1035B000FFF79EFFA06940F48070A06104481830B6
:1035C000016841F40871016007B030BD001002408D
:1035D00000040048203AD2B2034B02EB420203EB54
:1035E000021200F019B8000062530008F0B50E4650
:1035F0000746002540F23F1407E021463846FFF712
:10360000E9FF103C6D1CA4B2761C3278002A01D070
:10361000142DF2D3F0BD00002DE9F04791468A4603
:103620000026044600F086F8DFF84080012700BF3E
:1036300000F0C0F85FF0000539F8160007FA05F150
:103640000842404601D1408800E0008800F086F83A
:103650006D1C102DF0D3641CE4B25146204600F0DE
:1036600069F8761C182EE3D3BDE8F087100000201F
:1036700010B5FFF767FF002000F014F8084CA08099
:10368000A088A0F50241303906D000F0BDFD002031
:1036900000F008F8A08010BD00F02DFDF7E7000055
:1036A0001000002070B51D490A6842F400720A60DB
:1036B0000A6842F480720A60184C103C226842F09A
:1036C00020022260164A1060086840F0200008605E
:1036D00000BF00BF00BF206840F0200020602068CD
:1036E00040F480702060FFF7EDFE4FF09041886A53
:1036F00040F48070886200BF00BF00BF0848001F10
:10370000006885B2886940F480708861FFF7F0FE38
:10371000206840F400702060284670BD28040048EE
:103720001408004801B5BDF800000149488008BDF3
:103730001000002010B50C460146202000F068F86B
:103740002146BDE81040212000F062B801B5BDF867
:1037500000000149088008BD10000020134A1168CC
:1037600041F400711160114910390B6843F4807302
:103770000B600B6843F020030B600D4B1860106862
:1037800040F02000106000BF00BF00BF086840F09C
:1037900020000860086840F48070086000BF00BF27
:1037A00000BF086840F400700860704728040048B3
:1037B000140800481449086840F40070086008685C
:1037C00040F48070086010481038026842F020020F
:1037D00002600E4B22221A600A6842F020020A6040
:1037E00000BF00BF00BF016841F020010160016817
:1037F00041F48071016000BF00BF00BF016841F467
:103800000071016070470000280400481408004857
:10381000184B10B51A6842F400721A601A6842F424
:1038200080721A60134A103A146844F0200414603D
:10383000114C2060186840F02000186000BF00BFE5
:1038400000BF106840F020001060106840F48070E5
:1038500010602160186840F02000186000BF00BFB1
:1038600000BF106840F020001060106840F48070C5
:10387000106010BD280400481408004801214FF4CE
:103880007F4000F001B8000070B5114D0E460446AF
:1038900001224FF47F412846FDF72DFE0D4B18887D
:1038A0009EB1A043188081B200222846FDF723FE76
:1038B000094C012204212046FDF71DFE2046BDE8EB
:1038C000704000220421FDF716BE2043EAE7000005
:1038D0000008004816000020000C004800EB8100A2
:1038E000006E00F0F84070478068C0F3C000704779
:1038F0008068C0F3800070478068C0F38000704724
:10390000C06810F4406F01D000207047012070475C
:10391000042303EAD15310B518444369C1F3045199
:1039200007248C40A3438A401343436110BD00EB3E
:103930008100016E21F000411143016670470000D3
:1039400030B58BB0002408940994202168460A946D
:10395000FCF796FC22484FF0A041042501604FF48B
:103960000031C0E9011485610121C460C0E904414E
:10397000047741770222026280F82440C462046323
:1039800080F83810C46380F84040FDF7EBF808B1C8
:10399000FCF71AFE08A912480894FCF761FE08B16A
:1039A000FCF712FE0F4800900620CDE901057F20AC
:1039B0000594CDE9030569460948FCF7BDFE08B149
:1039C000FCF702FE084800900C200190694604486C
:1039D000FCF7B2FE002801D0FCF7F6FD0BB030BDBD
:1039E000680000200008302E2000F01430B589B0A7
:1039F00020216846FCF744FC19481849002401605E
:103A00004902C0E90114C46004250461C0E9054508
:103A1000047701214177016280F82440C462046385
:103A200080F83810C46380F84040FDF79BF808B177
:103A3000FCF7CAFD0B4800900620CDE901057F2068
:103A40000594CDE9030569460548FCF775FE002895
:103A500001D0FCF7B9FD09B030BD000000010050F5
:103A6000D40000200080F03E114808B5816C41F080
:103A700004018164816C01F004010091816C41F0CA
:103A800001018164806C002200F001000090114669
:103A90000D20FDF79BFD0D20FDF78AFD002211464C
:103AA0000E20FDF793FDBDE808400E20FDF780BD18
:103AB000001002402DE9F04F87B014216846FCF752
:103AC000DFFB4048C16C41F00401C164C16C01F0EE
:103AD00004010591C16C41F02001C164C16C01F089
:103AE00020010591C16C41F00101C164C16C01F07C
:103AF00001010591C16C41F00201C164C16C01F08A
:103B000002010591C16C41F00801C164C06CDFF88D
:103B1000B88000F008004FF6FF740590002221469F
:103B20004046FDF7E8FC4FF480764FF090490022C4
:103B300031464846FDF7DFFCDFF890A00022042163
:103B40005046FDF7D8FCDFF888B04FF448770022E4
:103B500039465846FDF7CFFC0125CDE90045002444
:103B60000294694640460394FDF79CFBCDE900545E
:103B7000694648460295FDF795FB07208DE8310020
:103B800069465846FDF78EFB0096CDE9015469461B
:103B900048460394FDF786FB0420CDE9000502208A
:103BA000CDE9020469465046FDF77CFB0097CDE95C
:103BB0000154694658460394FDF774FB07B0BDE80D
:103BC000F08F00000010024000080048000C004880
:103BD0000004004810B59CB0002414941594169469
:103BE0001794189419941C210DA81A94FCF748FBFB
:103BF00034216846FCF744FB2848274901604F21DF
:103C0000C0E901146321C0E9031444618461FEF733
:103C1000BEFA08B1FCF7D8FC4FF48050149014A9F8
:103C20001E48FEF7F3FB08B1FCF7CEFC1B48FEF77D
:103C3000A0FF08B1FCF7C8FC189418A917481A94FB
:103C4000FEF756FA08B1FCF7BFFC60200D903C204F
:103C5000CDE90E0410941194129400220DA90F487E
:103C60001394FEF7F4FE08B1FCF7AEFC00944FF499
:103C70000050CDE9044001940294039406946946EF
:103C800006480C94FEF7E2F908B1FCF79DFC0348E6
:103C9000FEF7B4FE1CB010BD004001407C030020C4
:103CA00010B590B0002409940A940B94142104A830
:103CB0000C94FCF7E5FA2D480094039401940294C7
:103CC0000D940E944FF080410F9401604F21C0E994
:103CD0000114611EC0E903148461FEF758FA08B1AB
:103CE000FCF772FC4FF48050099009A91F48FEF7B9
:103CF0008DFB08B1FCF768FC1C48FEF7E5FC08B139
:103D0000FCF762FC042004905020CDE905040794E0
:103D100004A916480894FEF7E5FF08B1FCF754FC27
:103D20000120CDE900400294002269460F48039427
:103D3000FEF738FC08B1FCF747FC02200090019028
:103D4000042269460948FEF72DFC08B1FCF73CFC4B
:103D500080200F900DA90D940448FEF7C9F90028A2
:103D600001D0FCF731FC10B010BD000000020020B3
:103D700010B590B0002409940A940B94142104A85F
:103D80000C94FCF77DFA2E4800940394019402945D
:103D90000D940E9429490F9401604F21C0E901143C
:103DA0004FF6FF71C0E903148461FEF7F0F908B122
:103DB000FCF70AFC4FF48050099009A92048FEF74F
:103DC00025FB08B1FCF700FC1D48FEF77DFC08B19F
:103DD000FCF7FAFB042004905020CDE90504079479
:103DE00004A917480894FEF77DFF08B1FCF7ECFB27
:103DF0000120CDE900400294002269461048039456
:103E0000FEF7D0FB08B1FCF7DFFB02200090019029
:103E1000042269460A48FEF7C5FB08B1FCF7D4FB4B
:103E200080200F900DA90D940548FEF761F9002838
:103E300001D0FCF7C9FB10B010BD00000004004029
:103E40004C02002010B590B0002409940A940B9401
:103E5000142104A80C94FCF713FA2E480094039440
:103E6000019402940D940E9429490F9401604F21FE
:103E7000C0E901144FF6FF71C0E903148461FEF735
:103E800086F908B1FCF7A0FB4FF48050099009A90E
:103E90002048FEF7BBFA08B1FCF796FB1D48FEF779
:103EA00013FC08B1FCF790FB042004905020CDE9EE
:103EB0000504079404A917480894FEF713FF08B1F6
:103EC000FCF782FB0120CDE9004002940022694604
:103ED00010480394FEF766FB08B1FCF775FB02205F
:103EE00000900190042269460A48FEF75BFB08B186
:103EF000FCF76AFB80200F900DA90D940548FEF792
:103F0000F7F8002801D0FCF75FFB10B010BD0000EF
:103F100000080040980200203EB500240F4800949D
:103F200001940D49029401604F21C0E9011442F24D
:103F30000F718461C160FEF72AF908B1FCF744FBF8
:103F40000094694605480294FEF7D2F8002801D093
:103F5000FCF73AFB3EBD000000100040E4020020E8
:103F600010B590B000240C940D940E94142104A864
:103F70000F94FCF785F92F48009401940294039460
:103F800009940A942A490B9401604F21C0E9011455
:103F90004FF6FF71C0E9031444618461FEF7F7F83E
:103FA00008B1FCF711FB4FF480500C900CA921488C
:103FB000FEF72CFA08B1FCF707FB1E48FEF784FB5E
:103FC00008B1FCF701FB042004905020CDE9050462
:103FD000079404A917480894FEF784FE08B1FCF77B
:103FE000F3FA0120CDE9004002940022694611480D
:103FF0000394FEF7D7FA08B1FCF7E6FA0220009026
:104000000190042269460B48FEF7CCFA08B1FCF790
:10401000DBFA8020CDE90A4009A909940548FEF79A
:1040200067F8002801D0FCF7CFFA10B010BD0000EF
:104030000034014030030020184810B516490160D3
:104040004FF416514160002181600C22C160C0E92B
:1040500004128161C161016241628162FFF7B0F8BF
:1040600008B1FCF7B1FA00210C48FEF7F2FE08B1E6
:10407000FCF7AAFA00210948FEF7C5FE08B1FCF7D3
:10408000A3FA0648FEF75AFE002803D0BDE8104008
:10409000FCF79ABA10BD000000380140C8030020A8
:1040A000FEE7FEE710B500210E48FEF73FFB0421B6
:1040B0000C48FEF73BFB00210B48FEF737FB0421C1
:1040C0000948FEF733FB00210848FEF72FFB0421C7
:1040D0000648FEF72BFBBDE8104000210448FEF720
:1040E0007BBD0000000200204C020020980200204E
:1040F0007C030020704730B501210020FFF788FBCA
:104100004FF47A70FCF752FA00210120FFF780FB90
:1041100041F290711020FFF77BFB4FF41C5160209F
:10412000FFF776FB01216120FFF772FB0221462099
:10413000FFF76EFB48F210011320FFF769FB48F20E
:10414000FE011220FFF764FB4FF4A0610220FFF78D
:104150005FFB41F230010320FFF75AFB40F20334CA
:1041600021463020FFF754FB21463120FFF750FB5A
:1041700021463220FFF74CFBE51E29463320FFF78E
:1041800047FB03213420FFF743FB21463520FFF78F
:104190003FFB14213620FFF73BFB21463720FFF77A
:1041A00037FB21463820FFF733FB21463920FFF744
:1041B0002FFB29463A20FFF72BFB03213B20FFF77B
:1041C00027FB21463C20FFF723FB4FF4A0513D2065
:1041D000FFF71EFB4FF400719220FFF719FB2146F9
:1041E0009320FFF715FB40F60D019020FFF710FB21
:1041F00041F218010320FFF70BFBBDE8304040F20D
:1042000073110720FFF704BB10B543F20801E32048
:10421000FFF7FEFA1221E720FFF7FAFA41F2312107
:10422000EF20FFF7F5FA00210120FFF7F1FA4FF434
:10423000E0610220FFF7ECFA41F230010320FFF7C2
:10424000E7FA00210420FFF7E3FA40F207210820F3
:10425000FFF7DEFA00210920FFF7DAFA00210A2031
:10426000FFF7D6FA00210C20FFF7D2FA00210D202B
:10427000FFF7CEFA00210F20FFF7CAFA0021102025
:10428000FFF7C6FA07211120FFF7C2FA002112201A
:10429000FFF7BEFA00211320FFF7BAFAC820FCF797
:1042A000EFFF41F290611020FFF7B2FA40F22721B0
:1042B0001120FFF7ADFA3220FCF7E2FF1D2112209A
:1042C000FFF7A6FA3220FCF7DBFF4FF40061132062
:1042D000FFF79EFA14212920FFF79AFA0B212B20D1
:1042E000FFF796FA3220FCF7CBFF00212020FFF7E2
:1042F0008FFA00212120FFF78BFA07213020FFF7EA
:1043000087FA40F207713120FFF782FA0621322046
:10431000FFF77EFA40F204713520FFF779FA41F693
:1043200004713620FFF774FA04213720FFF770FA82
:1043300000213820FFF76CFA40F206713920FFF7B0
:1043400067FA40F201713C20FFF762FA0F213D202D
:10435000FFF75EFA00215020FFF75AFAEF215120B3
:10436000FFF756FA00215220FFF752FA40F23F11B0
:104370005320FFF74DFA4FF41C516020FFF748FA25
:1043800001216120FFF744FA00216A20FFF740FA7B
:1043900000218020FFF73CFA00218120FFF738FA46
:1043A00000218220FFF734FA00218320FFF730FA42
:1043B00000218420FFF72CFA00218520FFF728FA3E
:1043C00010219020FFF724FA00219220FFF720FA15
:1043D00003219320FFF71CFA4FF488719520FFF713
:1043E00017FA00219720FFF713FA00219820FFF712
:1043F0000FFA41F218010320FFF70AFABDE8104056
:1044000040F273110720FFF703BA704710B501227D
:1044100000210748FEF784FF142206490448FEF7EE
:10442000ACFC05480068016821F00401016010BD82
:10443000C8030020540000205C040020FDF766B88B
:1044400010B594B038216846FBF71AFF14210EA866
:10445000FBF716FF4FF40070FDF7EAF8012000901B
:104460000004019002200324CDE907041421CDE9C2
:104470000A100C900D9009946846FDF7CDFB08B129
:1044800072B6FEE70F20CDE90E04002010901190C7
:10449000129002210EA8FDF775FA002801D072B61D
:1044A000FEE714B010BD00000248016841F470013D
:1044B0000160704788ED00E00148FEF7CDB90000CB
:1044C000000200200148FEF7C7B900004C0200209E
:1044D0000148FEF7C1B90000980200200148FEF72C
:1044E000BBB90000E40200200148FEF7B5B90000A6
:1044F000300300202DE9F0430268264B264D274E5D
:10450000274C4FF08049984207D0484505D0A84233
:1045100003D0B04201D0A04203D122F070074A6814
:104520003A43204FDFF880C0DFF8808098420DD0FA
:1045300048450BD0A84209D0B04207D0A04205D0D0
:10454000B84203D0604501D0404503D122F4407504
:10455000CA682A434D6922F080022A4302608A68B1
:10456000C2620A688262984207D0A04205D0B8426F
:1045700003D0604501D0404501D1096901630121A3
:1045800041610169C90703D0016921F0010101619D
:10459000BDE8F083002C014000040040000800400A
:1045A0000034014000400140004401400048014007
:1045B00010B501F01F030121046A99408C43046285
:1045C000016A9A401143016210BD10B5846842EA45
:1045D000032224F47F440A432243826010BD00007A
:1045E0008268034B1A400A4342F00701816070471A
:1045F0008FFFCFFF2DE9F043056A026A22F0010226
:104600000262436882691C4C25F0020522400C6856
:1046100022F0030214438A68194E2A43174D194F9A
:10462000DFF864C0DFF86490A84207D0B04205D03C
:10463000B84203D0604501D0484506D122F00808B1
:10464000CA6842EA080222F00402A84207D0B04237
:1046500005D0B84203D0604501D0484505D14D6929
:1046600023F440731D438B692B4343608461496885
:1046700041630262BDE8F0838FFFFEFF002C014022
:104680000034014000400140004401400048014026
:10469000F0B5056A026A22F010020262426883697C
:1046A000194C1B4E23400C6823F4407343EA042446
:1046B00025F020038D6843EA0513144DA84201D06C
:1046C000B04206D1CF6823F0800343EA071323F0FA
:1046D0004003A8420AD0B04208D00E4DA84205D0EF
:1046E0000D4DA84202D00D4DA84207D14D6922F4CC
:1046F000406242EA85028D6942EA85024260846135
:10470000496881630362F0BDFF8FFFFE002C01400A
:104710000034014000400140004401400048014095
:10472000F0B5056A026A22F4807202624368C269C7
:10473000194C1B4E22400C6822F00302144325F44E
:1047400000728D6842EA0522144DA84201D0B042A1
:1047500006D1CF6822F4006242EA072222F4806286
:10476000A8420AD0B04208D00E4DA84205D00E4D46
:10477000A84202D00D4DA84207D14D6923F4405301
:1047800043EA05138D6943EA05134360C461496830
:10479000C1630262F0BD00008FFFFEFF002C0140EC
:1047A0000034014000400140004401400048014005
:1047B000F0B5056A026A22F4805202624268C36957
:1047C000194C1B4E23400C6823F4407343EA042425
:1047D00025F400538D6843EA0533144DA84201D0F7
:1047E000B04206D1CF6823F4004343EA073323F4F1
:1047F0008043A8420AD0B04208D00E4DA84205D04E
:104800000D4DA84202D00D4DA84207D14D6922F4AA
:10481000404242EA85128D6942EA85124260C461D3
:10482000496801640362F0BDFF8FFFFE002C014068
:104830000034014000400140004401400048014074
:1048400030B5056A026A22F4803202624268036D62
:10485000114C23400C681C4325F400330D8943EAB6
:1048600005430E4DA8420BD00D4DA84208D00D4D6A
:10487000A84205D00C4DA84202D00C4DA84204D14C
:104880004D6922F4803242EA05224260046549689B
:104890008164036230BD00008FFFFEFF002C0140E9
:1048A0000034014000400140004401400048014004
:1048B00030B5046A026A22F4801202624268036D13
:1048C000114D24F400142B400D6843EA05230D8993
:1048D00044EA05540D4DA8420BD00D4DA84208D016
:1048E0000C4DA84205D00C4DA84202D00B4DA84259
:1048F00004D14D6922F4802242EA85224260036598
:104900004968C164046230BDFF8FFFFE002C014086
:104910000034014000400140004401400048014093
:1049200070B505680024AA682E4B1A404B681343E3
:104930002D4A13400A681A43AA604A68602A4AD07E
:104940000DDC302A1FD005DCEAB1102A1BD0202A4A
:1049500018D118E0402A1FD0502A13D135E0234D3A
:10496000531BAA420FD009DC702A0ED0B2F1101FDF
:1049700009D0203AB2F5801F04D104E0102B02D0F8
:10498000402B00D00124204670BD0B69D1E90221E3
:104990000068FFF71AFEF6E70A68052A13D0B2F19D
:1049A000011F10D00268136A156A25F0010515620F
:1049B00002689569096925F0F00545EA01119161E0
:1049C00000680362DFE7012070BD0A69896800683A
:1049D00000F00EF8D7E70A698968006800F050F81F
:1049E000D1E700008FFFCFFFF8FFFEFF300010007F
:1049F00010B5036A046A24F001040462846924F097
:104A0000F00444EA021423F00A020A4384610262B9
:104A100010BD000070B5056A046A24F00104046248
:104A20008469124EB0420ED0B0F1804F0BD0104EC0
:104A3000B04208D00F4EB04205D00F4EB04202D067
:104A40000E4EB04203D124F00304144301E044F0BD
:104A500001041A0724F0F00444EA126225F00A0364
:104A600001F00A0119438261016270BD002C01400E
:104A700000040040000800400034014000400140B4
:104A800010B5036A046A24F010040462846923F0F8
:104A9000A00324F4704444EA023243EA0111826123
:104AA000016210BD30B5046A056A25F01005056283
:104AB000856925F4407545EA022222F470454FF6D7
:104AC000FF7202EA033224F0A0032A43A02404EA7E
:104AD000011119438261016230BD000030B5416EA1
:104AE000B9B1026891689268C1F342610B4B520FF1
:104AF0009C5CE50003F10804A25CB5FBF2F2A0F8AF
:104B00006A205A5C615CD200B2FBF1F1A0F8681037
:104B100030BD0121A0F86A10F8E700003A53000800
:104B200090F82810090706D501684A68836B22F4BB
:104B300000421A434A6090F82810C90706D001685D
:104B40004A68C36A22F400321A434A6090F8281077
:104B5000890706D501684A68036B22F480321A433C
:104B60004A6090F82810490706D501684A68436BE7
:104B700022F480221A434A6090F82810C90606D50C
:104B800001688A68C36B22F480521A438A6090F8E5
:104B90002810890606D501688A68036C22F4005241
:104BA0001A438A6090F82810490611D501684A68AE
:104BB000436C22F480121A434A60416CB1F5801FA5
:104BC00006D101684A68836C22F4C0021A434A6025
:104BD00090F82810090606D501684A68C06C22F4CE
:104BE000002202434A6070472DE9F843002604463C
:104BF000C0F89060FCF784FC8046206800684FF0A5
:104C0000200500076FF07E4713D543460022290494
:104C10002046009700F0B8FA58B1216851E8000F1B
:104C200020F0800041E80002002AF6D1C4F8885044
:104C300021E020680068400722D5434600224FF457
:104C400080012046009700F09FFAC8B1216851E822
:104C5000000F20F4907041E80002002AF6D120688D
:104C6000083050E8001F21F0010140E80012002A3E
:104C7000F5D1C4F88C5084F884600320BDE8F88333
:104C8000C4F88850C4F88C5044F86C6F666026767F
:104C90000020F3E710B5806A0021A0F85E10FEF74F
:104CA00000F910BD70B5846AD4F88800D4F88C502F
:104CB000216889684FF00006090606D5212804D12D
:104CC000A4F85660204600F0B9F8206880684006D5
:104CD00006D5222D04D1A4F85E60204600F084F8A9
:104CE000D4F8900040F01000C4F890002046FEF781
:104CF000D8F870BD10B50146806A096809684FF0A0
:104D0000000289062DD4A0F85E20036853E8001F36
:104D100021F4807143E80014002CF6D101680831B9
:104D200051E8003F23F0010341E80034002CF5D1A5
:104D30000168083151E8003F23F0400341E80034A6
:104D4000002CF5D12021C0F88C10C16E012908D1AA
:104D5000016851E8003F23F0100341E80034002CC3
:104D6000F6D10267C16E012902D0FEF7D7FA10BD55
:104D7000B0F85C10FEF726F810BD10B5806A01216E
:104D80000167C16E012902D0FEF7C9FA10BDB0F863
:104D90005C104908FEF716F810BD10B50146806A90
:104DA00009680968890616D40021A0F85610016820
:104DB000083151E8002F22F0800241E80023002B47
:104DC000F5D1026852E8001F41F0400142E80013AB
:104DD000002BF6D110BDFEF7EBFA10BD10B5806ABE
:104DE000FEF7E7FA10BD000010B5026852E8001F98
:104DF00021F4907142E80013002BF6D10E4B0268AB
:104E0000083252E8001F194042E80014002CF6D185
:104E1000C16E012908D1016851E8002F22F010026B
:104E200041E80023002BF6D12021C0F88C1000218E
:104E3000C166416710BD0000FEFFFFEF026852E847
:104E4000001F21F0C00142E80013002BF6D10168D9
:104E5000083151E8002F22F4000241E80023002B22
:104E6000F5D12021C0F88810704700002DE9F041ED
:104E70000446016880682269E3691043626900257D
:104E80001A431043DFF82CC20A688B4B1A400243C6
:104E90000A6020684168E26821F440511143416092
:104EA0002168A069614501D0226A10438A68834B5A
:104EB0001A4002438A602068C16A626A21F00F01C9
:104EC0001143C1627E4923687E488B420DD1D0F8E0
:104ED000880010F0030006D0012855D0022842D0E7
:104EE00003283FD152E001203DE077498B420BD1AE
:104EF000D0F8880010F00C0035D0042833D00828F2
:104F000040D00C282ED141E070498B420BD1D0F813
:104F1000880010F0300026D0102835D0202831D05D
:104F200030281FD132E06A498B420BD1D0F888007B
:104F300010F0C00017D0402826D0802822D0C028EA
:104F400010D123E063450DD1D0F8880010F4406003
:104F500009D0B0F5806F17D0B0F5006F12D0B0F562
:104F6000406F13D010205B495B4F00264FF4004286
:104F700063453BD160B1022813D004280BD0082828
:104F800072D10DE00220EEE70420ECE70820EAE70A
:104F9000FCF7E6FD01E0FCF707FE010001D17CE033
:104FA0001146606A37F810206768B1FBF2F007EB32
:104FB0004703834270D8B0EB073F6DD80023084603
:104FC0001946FBF725F9090241EA10610202780847
:104FD000101871413A460023FBF71AF93F4AA0F531
:104FE0004071914258D82168C86056E0E3694FF695
:104FF000EF7893422CD109284ED2DFE800F0050863
:10500000114D0D4D4D4D1000FCF7AAFD01E0FCF7D0
:10501000B9FD010004D140E0FCF7C6FDF9E71146F7
:10502000606A37F81000B1FBF0F04100606801EBF6
:105030005001B1FBF0F0A0F1100141452CD84FF622
:10504000F0710140C0F3420001432068C16024E0D8
:10505000092821D2DFE800F0050912200E202020C7
:105060001100FCF77DFD02E016E0FCF78BFD01006E
:1050700004D112E0FCF798FDF9E71146606A37F8B1
:105080001000B1FBF0F1606801EB5001B1FBF0F0F2
:10509000A0F1100141450AD901250120A4F86A00B8
:1050A00024F8680F2846E6602661BDE8F08180B2EA
:1050B00099E7000000800040F369FFCFFFF4FF1183
:1050C0000038014000100240004400400048004009
:1050D000004C00400024F40022530008FFFC0F00A5
:1050E00070B58165A0F85C2000210446C0F89010DE
:1050F0002220C4F88C00D4F88000F0B11F4BC362AA
:10510000D4F880301E481863D4F880301D485863A6
:10511000D4F8800013468163A56D21682A462431A6
:10512000D4F88000FCF766F838B11020C4F890007D
:105130002020C4F88C00012070BD206940B1216896
:1051400051E8000F40F4807041E80002002AF6D1D7
:105150002068083050E8001F41F0010140E80012CB
:10516000002AF5D12068083050E8001F41F04001C6
:1051700040E80012002AF5D1002070BDF54C00086F
:105180007B4D0008A54C00082DE9F04799461746CD
:105190000D4604464FF00008089E33E0701C31D0E5
:1051A000FCF7AEF9A0EB0900B04218D8BEB12068F8
:1051B0000168490726D5802D24D0402D22D0C16911
:1051C000C94309070DD4082505622046FFF70CFEE8
:1051D000C4F8905084F884800120BDE8F087032053
:1051E000FBE7C069C04300050CD421684FF40060A0
:1051F00008622046FFF7F8FD2020C4F8900084F8EC
:105200008480ECE72068C06935EA000004D0002003
:10521000B842C3D00020E0E70120F9E70148FDF7DC
:1052200041BE0000C8030020FEE7000010B50020CA
:10523000FEF778FA4FF6FF70FEF788FA0020FEF7C7
:105240006FF96420FCF71CF804A16020FEF7CEF98A
:10525000BDE810404FF47A70FCF712B820202020EF
:1052600048656C6C6F2C776F726C642E2020200068
:1052700010B5FEF7FDF90020FEF752F90020FEF709
:1052800051FABDE810404FF6FF70FEF75FBA09070C
:10529000090E002804DB00F1E02080F800147047BC
:1052A00000F00F0000F1E02080F8141D704702E0CC
:1052B00008C8121F08C1002AFAD1704770470020A1
:1052C00001E001C1121F002AFBD17047FCF726F94B
:1052D000FFF7B6F8FEF7EEFBFEF7C6FBFEF71CFE87
:1052E000FEF72EFBFEF782FBFEF7A6FEFEF7D8FCCC
:1052F000FEF73EFDFEF734FEFEF76CFCFEF7A2FD66
:10530000FFF7B6FFFEF76EF8FEF7B8FAFEF76CF897
:10531000FBF7C6F8FEF7C6FEFFF778F8FFF786FF43
:10532000FCE7010002000400060008000A000C006F
:10533000100020004000800000010101010307016E
:105340000000080402040801010100000000000040
:105350000000010203040607080900000000010222
:105360000304000000000000000000000000000036
:10537000000000000000000000000000000000002D
:10538000000000000000000000000000000000001D
:105390000000000080018001800180018001800107
:1053A0008001800180018001800180018001000076
:1053B00000008001800100000000000000000000EB
:1053C000000000000000CC00CC00CC00CC00CC00E1
:1053D000CC00000000000000000000000000000001
:1053E00000000000000000000000000000000000BD
:1053F0000000000000000000000000000000600C41
:10540000600C600C30063006FE1FFE1F30063807A9
:105410001803FE1FFE1F180318038C018C018C015A
:10542000000000008000E003F80F9C0E8C1C8C181C
:105430008C009800F801E007800E801C8C188C18F6
:105440009C18B80CF00FE003800080000000000002
:1054500000000000000000000E181B0C110C1106CB
:105460001106110311039B018E01C038C06C60440A
:105470006044304430441844186C0C38000000007C
:1054800000000000E001F00338071806180630039A
:10549000F001F000F8009C310E33061E061C061CBD
:1054A000063FFC73F0210000000000000000000037
:1054B0000000000000000C000C000C000C000C00B0
:1054C0000C000000000000000000000000000000D0
:1054D00000000000000000000000000000000000CC
:1054E00000000000000200038001C000C000600056
:1054F00060003000300030003000300030003000FC
:10550000300060006000C000C000800100030002A5
:105510000000000020006000C00080018001000346
:10552000000300060006000600060006000600064E
:1055300000060003000380018001C000600020001D
:105540000000000000000000000000000000C0009B
:10555000C000D806F807E00130033807000000005B
:10556000000000000000000000000000000000003B
:1055700000000000000000000000000000008001AA
:105580008001800180018001FC3FFC3F800180019F
:105590008001800180010000000000000000000088
:1055A00000000000000000000000000000000000FB
:1055B00000000000000000000000000000000000EB
:1055C0000000000080018001000100018000000057
:1055D00000000000000000000000000000000000CB
:1055E00000000000000000000000E007E0070000ED
:1055F00000000000000000000000000000000000AB
:10560000000000000000000000000000000000009A
:10561000000000000000000000000000000000008A
:1056200000000000C000C0000000000000000000FA
:1056300000000000000C000C00060006000600033D
:10564000000300038003800180018001C000C000CE
:10565000C0006000600000000000000000000000CA
:1056600000000000E003F007380E180C0C180C18AE
:105670000C180C180C180C180C180C180C18180C0A
:10568000380EF007E00300000000000000000000FA
:105690000000000000018001C001F00198018801B4
:1056A00080018001800180018001800180018001F2
:1056B0008001800180010000000000000000000067
:1056C00000000000E003F80F180C0C180C1800186C
:1056D0000018000C000600038001C00060003000CC
:1056E0001800FC1FFC1F000000000000000000006C
:1056F00000000000E001F807180E0C0C0C0C000C68
:105700000006C003C007000C001800180C180C1885
:10571000180CF807E0030000000000000000000083
:1057200000000000000C000E000F000F800DC00CE8
:10573000600C600C300C180C0C0CFC3FFC3F000C97
:10574000000C000C000C0000000000000000000035
:1057500000000000F80FF80F180018000C00EC0310
:10576000FC071C0E001C0018001800180C181C0C5C
:10577000180EF807E0030000000000000000000021
:1057800000000000C007F00F381C181818000C00AB
:10579000CC03EC0F3C0E1C1C0C180C180C18181C1D
:1057A000380EF007E00300000000000000000000D9
:1057B00000000000FC1FFC1F000C00060006000398
:1057C00080038001C001C000E00060006000700044
:1057D0003000300030000000000000000000000039
:1057E00000000000E003F007380E180C180C180C2D
:1057F0003806F007F007180C0C180C180C180C18C9
:10580000380CF80FE003000000000000000000006A
:1058100000000000E003F007380E1C0C0C180C18F8
:105820000C181C1C381EF81BE0190018000C000C8A
:105830001C0EF807F001000000000000000000004E
:1058400000000000000000000000000000008001D7
:1058500080010000000000000000000000000000C7
:105860000000800180010000000000000000000036
:1058700000000000000000000000000000008001A7
:105880008001000000000000000000000000000097
:105890000000800180010001000180000000000084
:1058A00000000000000000000000000000000000F8
:1058B00000000010001C800FE003F8001800F80042
:1058C000E003800F001C001000000000000000003A
:1058D00000000000000000000000000000000000C8
:1058E0000000F81F000000000000F81F000000008A
:1058F00000000000000000000000000000000000A8
:105900000000000000000000000000000000000097
:10591000000008003800F001C007001F0018001F39
:10592000C007F0013800080000000000000000007F
:1059300000000000E003F80F180C0C180C180018F9
:10594000000C000600038001C000C000C000000081
:105950000000C000C00000000000000000000000C7
:10596000000000000000E00718180420C229224AA5
:10597000114409440944094409221113E20C02406C
:1059800004201818E00700000000000000000000DC
:105990000000000080038003C006C006C006600C43
:1059A000600C301830183018F83FF83F1C700C604D
:1059B0000C6006C006C000000000000000000000EF
:1059C00000000000FC03FC0F0C0C0C180C180C1849
:1059D0000C0CFC07FC0F0C180C300C300C300C308D
:1059E0000C18FC1FFC070000000000000000000075
:1059F00000000000C007F01F38381C300C70066033
:105A000006000600060006000600060006600C7090
:105A10001C30F01FE0070000000000000000000044
:105A200000000000FE03FE0F060E061806180630E2
:105A300006300630063006300630063006180618E6
:105A4000060EFE0FFE030000000000000000000034
:105A500000000000FC3FFC3F0C000C000C000C00A0
:105A60000C00FC1FFC1F0C000C000C000C000C00B8
:105A70000C00FC3FFC3F00000000000000000000A4
:105A800000000000F83FF83F180018001800180048
:105A90001800F81FF81F1800180018001800180048
:105AA00018001800180000000000000000000000AE
:105AB00000000000E00FF83F3C780E6006E007C0F1
:105AC0000300030003FE03FE03C007C006C00EC0B0
:105AD0003CF0F83FE00F0000000000000000000074
